{
  "contractName": "CatsoContract",
  "abi": [
    {
      "anonymous": false,
      "inputs": [
        {
          "indexed": true,
          "internalType": "address",
          "name": "owner",
          "type": "address"
        },
        {
          "indexed": true,
          "internalType": "address",
          "name": "approved",
          "type": "address"
        },
        {
          "indexed": true,
          "internalType": "uint256",
          "name": "tokenId",
          "type": "uint256"
        }
      ],
      "name": "Approval",
      "type": "event"
    },
    {
      "anonymous": false,
      "inputs": [
        {
          "indexed": false,
          "internalType": "address",
          "name": "owner",
          "type": "address"
        },
        {
          "indexed": false,
          "internalType": "uint256",
          "name": "newCatsoId",
          "type": "uint256"
        },
        {
          "indexed": false,
          "internalType": "uint256",
          "name": "mumId",
          "type": "uint256"
        },
        {
          "indexed": false,
          "internalType": "uint256",
          "name": "dadId",
          "type": "uint256"
        },
        {
          "indexed": false,
          "internalType": "uint256",
          "name": "genes",
          "type": "uint256"
        }
      ],
      "name": "Birth",
      "type": "event"
    },
    {
      "anonymous": false,
      "inputs": [
        {
          "indexed": true,
          "internalType": "address",
          "name": "from",
          "type": "address"
        },
        {
          "indexed": true,
          "internalType": "address",
          "name": "to",
          "type": "address"
        },
        {
          "indexed": true,
          "internalType": "uint256",
          "name": "tokenId",
          "type": "uint256"
        }
      ],
      "name": "Transfer",
      "type": "event"
    },
    {
      "constant": true,
      "inputs": [],
      "name": "LIMIT_OF_GEN0",
      "outputs": [
        {
          "internalType": "uint256",
          "name": "",
          "type": "uint256"
        }
      ],
      "payable": false,
      "stateMutability": "view",
      "type": "function"
    },
    {
      "constant": true,
      "inputs": [
        {
          "internalType": "uint256",
          "name": "",
          "type": "uint256"
        }
      ],
      "name": "catIndexToOwner",
      "outputs": [
        {
          "internalType": "address",
          "name": "",
          "type": "address"
        }
      ],
      "payable": false,
      "stateMutability": "view",
      "type": "function"
    },
    {
      "constant": true,
      "inputs": [],
      "name": "gen0Counter",
      "outputs": [
        {
          "internalType": "uint256",
          "name": "",
          "type": "uint256"
        }
      ],
      "payable": false,
      "stateMutability": "view",
      "type": "function"
    },
    {
      "constant": true,
      "inputs": [],
      "name": "name",
      "outputs": [
        {
          "internalType": "string",
          "name": "",
          "type": "string"
        }
      ],
      "payable": false,
      "stateMutability": "view",
      "type": "function"
    },
    {
      "constant": true,
      "inputs": [],
      "name": "owner",
      "outputs": [
        {
          "internalType": "address",
          "name": "",
          "type": "address"
        }
      ],
      "payable": false,
      "stateMutability": "view",
      "type": "function"
    },
    {
      "constant": true,
      "inputs": [],
      "name": "symbol",
      "outputs": [
        {
          "internalType": "string",
          "name": "",
          "type": "string"
        }
      ],
      "payable": false,
      "stateMutability": "view",
      "type": "function"
    },
    {
      "constant": false,
      "inputs": [
        {
          "internalType": "uint256",
          "name": "_genes",
          "type": "uint256"
        }
      ],
      "name": "createCatsoGen0",
      "outputs": [
        {
          "internalType": "uint256",
          "name": "",
          "type": "uint256"
        }
      ],
      "payable": false,
      "stateMutability": "nonpayable",
      "type": "function"
    },
    {
      "constant": false,
      "inputs": [
        {
          "internalType": "address",
          "name": "_to",
          "type": "address"
        },
        {
          "internalType": "uint256",
          "name": "_tokenId",
          "type": "uint256"
        }
      ],
      "name": "transfer",
      "outputs": [],
      "payable": false,
      "stateMutability": "nonpayable",
      "type": "function"
    },
    {
      "constant": true,
      "inputs": [
        {
          "internalType": "uint256",
          "name": "_id",
          "type": "uint256"
        }
      ],
      "name": "getCatso",
      "outputs": [
        {
          "internalType": "uint256",
          "name": "genes",
          "type": "uint256"
        },
        {
          "internalType": "uint256",
          "name": "birthTime",
          "type": "uint256"
        },
        {
          "internalType": "uint256",
          "name": "mumId",
          "type": "uint256"
        },
        {
          "internalType": "uint256",
          "name": "dadId",
          "type": "uint256"
        },
        {
          "internalType": "uint256",
          "name": "generation",
          "type": "uint256"
        }
      ],
      "payable": false,
      "stateMutability": "view",
      "type": "function"
    },
    {
      "constant": true,
      "inputs": [
        {
          "internalType": "address",
          "name": "_owner",
          "type": "address"
        }
      ],
      "name": "balanceOf",
      "outputs": [
        {
          "internalType": "uint256",
          "name": "balance",
          "type": "uint256"
        }
      ],
      "payable": false,
      "stateMutability": "view",
      "type": "function"
    },
    {
      "constant": true,
      "inputs": [],
      "name": "totalSupply",
      "outputs": [
        {
          "internalType": "uint256",
          "name": "",
          "type": "uint256"
        }
      ],
      "payable": false,
      "stateMutability": "view",
      "type": "function"
    },
    {
      "constant": true,
      "inputs": [
        {
          "internalType": "uint256",
          "name": "_tokenId",
          "type": "uint256"
        }
      ],
      "name": "ownerOf",
      "outputs": [
        {
          "internalType": "address",
          "name": "",
          "type": "address"
        }
      ],
      "payable": false,
      "stateMutability": "view",
      "type": "function"
    }
  ],
  "bytecode": "0x6080604052336000806101000a81548173ffffffffffffffffffffffffffffffffffffffff021916908373ffffffffffffffffffffffffffffffffffffffff160217905550610c76806100536000396000f3fe608060405234801561001057600080fd5b50600436106100b45760003560e01c806395d89b411161007157806395d89b41146102c8578063a9059cbb1461034b578063abadce7814610399578063d1df1d1014610407578063ef5e94aa14610449578063ff3c470b14610467576100b4565b806306fdde03146100b957806318160ddd1461013c5780633a3986201461015a5780636352211e146101b857806370a08231146102265780638da5cb5b1461027e575b600080fd5b6100c1610485565b6040518080602001828103825283818151815260200191508051906020019080838360005b838110156101015780820151818401526020810190506100e6565b50505050905090810190601f16801561012e5780820380516001836020036101000a031916815260200191505b509250505060405180910390f35b6101446104be565b6040518082815260200191505060405180910390f35b6101866004803603602081101561017057600080fd5b81019080803590602001909291905050506104cb565b604051808681526020018581526020018481526020018381526020018281526020019550505050505060405180910390f35b6101e4600480360360208110156101ce57600080fd5b810190808035906020019092919050505061057a565b604051808273ffffffffffffffffffffffffffffffffffffffff1673ffffffffffffffffffffffffffffffffffffffff16815260200191505060405180910390f35b6102686004803603602081101561023c57600080fd5b81019080803573ffffffffffffffffffffffffffffffffffffffff1690602001909291905050506105b7565b6040518082815260200191505060405180910390f35b610286610600565b604051808273ffffffffffffffffffffffffffffffffffffffff1673ffffffffffffffffffffffffffffffffffffffff16815260200191505060405180910390f35b6102d0610625565b6040518080602001828103825283818151815260200191508051906020019080838360005b838110156103105780820151818401526020810190506102f5565b50505050905090810190601f16801561033d5780820380516001836020036101000a031916815260200191505b509250505060405180910390f35b6103976004803603604081101561036157600080fd5b81019080803573ffffffffffffffffffffffffffffffffffffffff1690602001909291908035906020019092919050505061065e565b005b6103c5600480360360208110156103af57600080fd5b81019080803590602001909291905050506106f3565b604051808273ffffffffffffffffffffffffffffffffffffffff1673ffffffffffffffffffffffffffffffffffffffff16815260200191505060405180910390f35b6104336004803603602081101561041d57600080fd5b8101908080359060200190929190505050610726565b6040518082815260200191505060405180910390f35b610451610804565b6040518082815260200191505060405180910390f35b61046f61080a565b6040518082815260200191505060405180910390f35b6040518060400160405280600c81526020017f436174736f20546f6b656e73000000000000000000000000000000000000000081525081565b6000600280549050905090565b600080600080600080600287815481106104e157fe5b906000526020600020906002020190508060010160009054906101000a900467ffffffffffffffff1667ffffffffffffffff1694508060010160089054906101000a900463ffffffff1663ffffffff16935080600101600c9054906101000a900463ffffffff1663ffffffff1692508060010160109054906101000a900461ffff1661ffff169150806000015495505091939590929450565b60006003600083815260200190815260200160002060009054906101000a900473ffffffffffffffffffffffffffffffffffffffff169050919050565b6000600460008373ffffffffffffffffffffffffffffffffffffffff1673ffffffffffffffffffffffffffffffffffffffff168152602001908152602001600020549050919050565b6000809054906101000a900473ffffffffffffffffffffffffffffffffffffffff1681565b6040518060400160405280600381526020017f434154000000000000000000000000000000000000000000000000000000000081525081565b600073ffffffffffffffffffffffffffffffffffffffff168273ffffffffffffffffffffffffffffffffffffffff16141561069857600080fd5b3073ffffffffffffffffffffffffffffffffffffffff168273ffffffffffffffffffffffffffffffffffffffff1614156106d157600080fd5b6106db338261080f565b6106e457600080fd5b6106ef33838361087b565b5050565b60036020528060005260406000206000915054906101000a900473ffffffffffffffffffffffffffffffffffffffff1681565b60008060009054906101000a900473ffffffffffffffffffffffffffffffffffffffff1673ffffffffffffffffffffffffffffffffffffffff163373ffffffffffffffffffffffffffffffffffffffff161461078157600080fd5b600a600154106107dc576040517f08c379a000000000000000000000000000000000000000000000000000000000815260040180806020018281038252602c815260200180610c16602c913960400191505060405180910390fd5b6001600081548092919060010191905055506107fd60008060008533610a01565b9050919050565b60015481565b600a81565b60008273ffffffffffffffffffffffffffffffffffffffff166003600084815260200190815260200160002060009054906101000a900473ffffffffffffffffffffffffffffffffffffffff1673ffffffffffffffffffffffffffffffffffffffff1614905092915050565b600460008373ffffffffffffffffffffffffffffffffffffffff1673ffffffffffffffffffffffffffffffffffffffff16815260200190815260200160002060008154809291906001019190505550816003600083815260200190815260200160002060006101000a81548173ffffffffffffffffffffffffffffffffffffffff021916908373ffffffffffffffffffffffffffffffffffffffff160217905550600073ffffffffffffffffffffffffffffffffffffffff168373ffffffffffffffffffffffffffffffffffffffff16146109a157600460008473ffffffffffffffffffffffffffffffffffffffff1673ffffffffffffffffffffffffffffffffffffffff16815260200190815260200160002060008154809291906001900391905055505b808273ffffffffffffffffffffffffffffffffffffffff168473ffffffffffffffffffffffffffffffffffffffff167fddf252ad1be2c89b69c2b068fc378daa952ba7f163c4a11628f55a4df523b3ef60405160405180910390a4505050565b6000610a0b610bcc565b6040518060a001604052808581526020014267ffffffffffffffff1681526020018863ffffffff1681526020018763ffffffff1681526020018661ffff16815250905060006001600283908060018154018082558091505090600182039060005260206000209060020201600090919290919091506000820151816000015560208201518160010160006101000a81548167ffffffffffffffff021916908367ffffffffffffffff16021790555060408201518160010160086101000a81548163ffffffff021916908363ffffffff160217905550606082015181600101600c6101000a81548163ffffffff021916908363ffffffff16021790555060808201518160010160106101000a81548161ffff021916908361ffff16021790555050500390507f0a5311bd2a6608f08a180df2ee7c5946819a649b204b554bb8e39825b2c50ad584828a8a89604051808673ffffffffffffffffffffffffffffffffffffffff1673ffffffffffffffffffffffffffffffffffffffff1681526020018581526020018481526020018381526020018281526020019550505050505060405180910390a1610bbe6000858361087b565b809250505095945050505050565b6040518060a0016040528060008152602001600067ffffffffffffffff168152602001600063ffffffff168152602001600063ffffffff168152602001600061ffff168152509056fe546865206c696d6974206f662047656e65726174696f6e203020636174736f73206973207265616368656421a265627a7a723158201fd9e2b92f10d220437f2e455227b4003320caf727f72e321d1acbe93700057364736f6c634300050c0032",
  "source": "// SPDX-License-Identifier: MIT\r\npragma solidity \"0.5.12\";\r\n\r\n/** Imports */\r\nimport \"./IERC721.sol\";\r\nimport \"./Ownable.sol\";\r\n\r\n/** Contract */\r\ncontract CatsoContract is IERC721, Ownable{\r\n\r\n/** State Variables */\r\n    string public constant name = \"Catso Tokens\";\r\n    string public constant symbol = \"CAT\";\r\n    \r\n    /** - Varables related to the birth of a new kitten */\r\n    uint256 public constant LIMIT_OF_GEN0 = 10;\r\n    uint256 public gen0Counter;\r\n\r\n\r\n/** Events */\r\n    event Birth(address owner, uint256 newCatsoId, uint256 mumId, uint256 dadId, uint256 genes);\r\n\r\n/** Structs */\r\n    /** Defines the Kitty struct */\r\n    struct Kitty {\r\n        uint256 genes;\r\n        uint64 birthTime;\r\n        uint32 mumId;\r\n        uint32 dadId;\r\n        uint16 generation;\r\n    }\r\n\r\n/** Arrays */\r\n\r\n    /** - Kitty array containes individual kitties*/\r\n    Kitty[] kitties;\r\n\r\n\r\n\r\n /** Mappings */\r\n\r\n    /*@Dev -  CatsoId => owners address */\r\n    mapping (uint => address) public catIndexToOwner;\r\n\r\n    /*@Dev - Owners address => number of kitties */\r\n    mapping (address => uint256) ownershipTokenCount;\r\n\r\n\r\n/** Functions setters */\r\n\r\n    /** - Wrapper function to create generation ZERO kitties */\r\n    function createCatsoGen0(uint256 _genes)public onlyOwner returns (uint256) {\r\n        require(gen0Counter < LIMIT_OF_GEN0, \"The limit of Generation 0 catsos is reached!\");\r\n\r\n        gen0Counter++;\r\n\r\n        /* - call the _createCatso(mumId, dadId, _generation, _genes, adddress of msg.sender) */\r\n        return _createCatso(0, 0, 0, _genes, msg.sender);\r\n    }\r\n\r\n    /** - function to Breed a new Catso, returns the newCatsoId */\r\n    function _createCatso( uint256 _mumId, uint256 _dadId, uint256 _generation, uint256 _genes, address _owner) private returns (uint256) {\r\n       /* - Creates the kitty struct */\r\n        Kitty memory _kitty = Kitty({\r\n            genes: _genes,\r\n            birthTime: uint64(now),\r\n            mumId: uint32(_mumId),\r\n            dadId: uint32(_dadId),\r\n            generation: uint16(_generation)\r\n        });\r\n\r\n        /* - add the newly created _kitty struct to the array of kitties */\r\n        /* - bind the index of the added _kitty to the variable newCatsoId */\r\n        uint256 newCatsoId = kitties.push(_kitty) -1;\r\n\r\n        emit Birth(_owner, newCatsoId, _mumId, _dadId, _genes);\r\n\r\n        /* - call the function _transfer(address _from, address _to, tokenId) */\r\n        _transfer(address(0), _owner, newCatsoId);\r\n\r\n        return newCatsoId;\r\n    }\r\n\r\n    function transfer(address _to,uint256 _tokenId) external {\r\n        require(_to != address(0));\r\n        require(_to != address(this));\r\n        require(_owns(msg.sender, _tokenId));\r\n\r\n        _transfer(msg.sender, _to, _tokenId);\r\n    }\r\n\r\n    function _transfer(address _from, address _to, uint256 _tokenId) internal {\r\n        ownershipTokenCount[_to]++;\r\n\r\n        catIndexToOwner[_tokenId] = _to;\r\n\r\n        if (_from != address(0)) {\r\n            ownershipTokenCount[_from]--;\r\n        }\r\n\r\n        emit Transfer(_from, _to, _tokenId);\r\n    }\r\n\r\n\r\n/** Function getters */\r\n    \r\n    function getCatso(uint256 _id) external view returns (uint256 genes, uint256 birthTime, uint256 mumId, uint256 dadId, uint256 generation) {\r\n        Kitty storage kitty = kitties[_id];\r\n        \r\n        birthTime = uint256(kitty.birthTime);\r\n        mumId = uint256(kitty.mumId);\r\n        dadId = uint256(kitty.dadId);\r\n        generation = uint256(kitty.generation);\r\n        genes = kitty.genes;\r\n    }\r\n\r\n\r\n    function balanceOf(address _owner) external view returns (uint256 balance) {\r\n        return ownershipTokenCount[_owner];\r\n    }\r\n\r\n\r\n    function totalSupply() public view returns (uint) {\r\n        return kitties.length;\r\n    }\r\n\r\n\r\n    function ownerOf(uint256 _tokenId) external view returns (address) {\r\n        return catIndexToOwner[_tokenId];\r\n    }\r\n\r\n\r\n    function _owns(address _claimant, uint256 _tokenId) internal view returns (bool){\r\n        return catIndexToOwner[_tokenId] == _claimant;\r\n    }\r\n\r\n\r\n\r\n\r\n\r\n\r\n/** - Smart Contract end */\r\n}\r\n\r\n",
  "sourcePath": "C:/Users/Ivo/Documents/repos/bootcamp/project_2/Crypt-Catso/contracts/CatsoContract.sol",
  "compiler": {
    "name": "solc",
    "version": "0.5.12+commit.7709ece9.Emscripten.clang"
  },
  "schemaVersion": "3.3.1",
  "updatedAt": "2020-10-23T12:52:25.534Z",
  "networkType": "ethereum",
  "devdoc": {
    "methods": {}
  },
  "userdoc": {
    "methods": {
      "createCatsoGen0(uint256)": {
        "notice": "- Wrapper function to create generation ZERO kitties "
      },
      "getCatso(uint256)": {
        "notice": "Function getters "
      }
    },
    "notice": "Contract "
  }
}